{
  "bridge_1770233111811_vx4uvdt1o": {
    "id": "bridge_1770233111811_vx4uvdt1o",
    "status": "failed",
    "fromChain": "base_sepolia",
    "toChain": "ethereum_sepolia",
    "amount": "1",
    "amountWei": "1000000",
    "walletAddress": "0xbFb4087E65437EC5BFeD06f1F0375B47BFf31cC8",
    "createdAt": 1770233111869,
    "approveTx": "0x89f66fc4c084c1e984fab5462ae9652190ba2c2c08ff150870deebe0816f236e",
    "burnTx": null,
    "message": null,
    "messageHash": null,
    "attestation": null,
    "mintTx": null,
    "error": "execution reverted: \"ERC20: transfer amount exceeds allowance\" (action=\"estimateGas\", data=\"0x08c379a00000000000000000000000000000000000000000000000000000000000000020000000000000000000000000000000000000000000000000000000000000002845524332303a207472616e7366657220616d6f756e74206578636565647320616c6c6f77616e6365000000000000000000000000000000000000000000000000\", reason=\"ERC20: transfer amount exceeds allowance\", transaction={ \"data\": \"0x6fd3504e00000000000000000000000000000000000000000000000000000000000f42400000000000000000000000000000000000000000000000000000000000000000000000000000000000000000bfb4087e65437ec5bfed06f1f0375b47bff31cc8000000000000000000000000036cbd53842c5426634e7929541ec2318f3dcf7e\", \"from\": \"0xbFb4087E65437EC5BFeD06f1F0375B47BFf31cC8\", \"to\": \"0x9f3B8679c73C2Fef8b59B4f3444d4e156fb70AA5\" }, invocation=null, revert={ \"args\": [ \"ERC20: transfer amount exceeds allowance\" ], \"name\": \"Error\", \"signature\": \"Error(string)\" }, code=CALL_EXCEPTION, version=6.16.0)",
    "updatedAt": 1770233113332
  },
  "bridge_1770233147364_xlake07p7": {
    "id": "bridge_1770233147364_xlake07p7",
    "status": "failed",
    "fromChain": "base_sepolia",
    "toChain": "ethereum_sepolia",
    "amount": "1",
    "amountWei": "1000000",
    "walletAddress": "0xbFb4087E65437EC5BFeD06f1F0375B47BFf31cC8",
    "createdAt": 1770233147460,
    "approveTx": "0xa4ec3ca46dfb9a961723a6418628c920c4eb14583b3226d2720dfc41d30c317b",
    "burnTx": null,
    "message": null,
    "messageHash": null,
    "attestation": null,
    "mintTx": null,
    "error": "execution reverted (no data present; likely require(false) occurred (action=\"estimateGas\", data=\"0x\", reason=\"require(false)\", transaction={ \"data\": \"0x6fd3504e00000000000000000000000000000000000000000000000000000000000f42400000000000000000000000000000000000000000000000000000000000000000000000000000000000000000bfb4087e65437ec5bfed06f1f0375b47bff31cc8000000000000000000000000036cbd53842c5426634e7929541ec2318f3dcf7e\", \"from\": \"0xbFb4087E65437EC5BFeD06f1F0375B47BFf31cC8\", \"to\": \"0x8FE6B999Dc680CcFDD5Bf7EB0974218be2542DAA\" }, invocation=null, revert=null, code=CALL_EXCEPTION, version=6.16.0)",
    "updatedAt": 1770233148981
  },
  "bridge_1770233193777_79pjyh4rn": {
    "id": "bridge_1770233193777_79pjyh4rn",
    "status": "attesting",
    "fromChain": "base_sepolia",
    "toChain": "ethereum_sepolia",
    "amount": "1",
    "amountWei": "1000000",
    "walletAddress": "0xbFb4087E65437EC5BFeD06f1F0375B47BFf31cC8",
    "createdAt": 1770233193845,
    "approveTx": null,
    "burnTx": "0x7b2a534e32fdf76b1a1be2274b83a42b51551596cc2cbf37d16c5321c4c1238f",
    "message": "0x00000001000000060000000000000000000000000000000000000000000000000000000000000000000000000000000000000000000000008fe6b999dc680ccfdd5bf7eb0974218be2542daa0000000000000000000000008fe6b999dc680ccfdd5bf7eb0974218be2542daa0000000000000000000000000000000000000000000000000000000000000000000007d00000000000000001000000000000000000000000036cbd53842c5426634e7929541ec2318f3dcf7e000000000000000000000000bfb4087e65437ec5bfed06f1f0375b47bff31cc800000000000000000000000000000000000000000000000000000000000f4240000000000000000000000000bfb4087e65437ec5bfed06f1f0375b47bff31cc8000000000000000000000000000000000000000000000000000000000000271000000000000000000000000000000000000000000000000000000000000000000000000000000000000000000000000000000000000000000000000000000000",
    "messageHash": "0xb974bb134466ef5648aa8f2e7373e172015e363c484d8a225152105af90e00fb",
    "attestation": null,
    "mintTx": null,
    "error": null,
    "updatedAt": 1770233195093
  },
  "bridge_1770233430839_nbqqfaj9l": {
    "id": "bridge_1770233430839_nbqqfaj9l",
    "status": "attesting",
    "fromChain": "base_sepolia",
    "toChain": "ethereum_sepolia",
    "amount": "1",
    "amountWei": "1000000",
    "walletAddress": "0xbFb4087E65437EC5BFeD06f1F0375B47BFf31cC8",
    "createdAt": 1770233430892,
    "approveTx": null,
    "burnTx": "0xced51c474cd9df4e542c593adc6d25627d4ba76b9670a9e935e0137bd20ab1e8",
    "message": "0x000000000000000600000000000000000000963f0000000000000000000000009f3b8679c73c2fef8b59b4f3444d4e156fb70aa50000000000000000000000009f3b8679c73c2fef8b59b4f3444d4e156fb70aa5000000000000000000000000000000000000000000000000000000000000000000000000000000000000000000000000036cbd53842c5426634e7929541ec2318f3dcf7e000000000000000000000000bfb4087e65437ec5bfed06f1f0375b47bff31cc800000000000000000000000000000000000000000000000000000000000f4240000000000000000000000000bfb4087e65437ec5bfed06f1f0375b47bff31cc8",
    "messageHash": "0xb61272d6674b8446f80ba64bce5c63f0c6ef8db44baef9eb247ff076442b001a",
    "attestation": null,
    "mintTx": null,
    "error": null,
    "updatedAt": 1770233432146
  },
  "bridge_1770236694660_6vgqjjq6u": {
    "id": "bridge_1770236694660_6vgqjjq6u",
    "status": "failed",
    "fromChain": "base_sepolia",
    "toChain": "ethereum_sepolia",
    "amount": "1",
    "amountWei": "1000000",
    "walletAddress": "0xbFb4087E65437EC5BFeD06f1F0375B47BFf31cC8",
    "createdAt": 1770236694709,
    "approveTx": "0x263dedaa6c5d63470305ce6d8a1165b70b13e56d0ca9e8faaa0672d675542611",
    "burnTx": null,
    "message": null,
    "messageHash": null,
    "attestation": null,
    "mintTx": null,
    "error": "nonce has already been used (transaction=\"0x02f9015183014a340d830f424083155cc083021504948fe6b999dc680ccfdd5bf7eb0974218be2542daa80b8e48e0250ee00000000000000000000000000000000000000000000000000000000000f42400000000000000000000000000000000000000000000000000000000000000000000000000000000000000000bfb4087e65437ec5bfed06f1f0375b47bff31cc8000000000000000000000000036cbd53842c5426634e7929541ec2318f3dcf7e000000000000000000000000000000000000000000000000000000000000000000000000000000000000000000000000000000000000000000000000000186a000000000000000000000000000000000000000000000000000000000000003e8c001a096ca1d5c095093510d558d25b7af75ed43b7f520633ca5238c561399debbf0a5a073baa844b1f57bf5b58a670b1b08ff69c3c58f3b6c7a4cee8faca88f0731b77c\", info={ \"error\": { \"code\": -32000, \"message\": \"nonce too low: next nonce 14, tx nonce 13\" } }, code=NONCE_EXPIRED, version=6.16.0)",
    "updatedAt": 1770236696680
  },
  "bridge_1770236709423_kzzynaj3d": {
    "id": "bridge_1770236709423_kzzynaj3d",
    "status": "attesting",
    "fromChain": "base_sepolia",
    "toChain": "ethereum_sepolia",
    "amount": "1",
    "amountWei": "1000000",
    "walletAddress": "0xbFb4087E65437EC5BFeD06f1F0375B47BFf31cC8",
    "createdAt": 1770236709476,
    "approveTx": null,
    "burnTx": "0x010478e8594e0feb9d0873e79500d7ebb58f8ee168aead479ff9fe6a69b8635c",
    "message": "0x00000001000000060000000000000000000000000000000000000000000000000000000000000000000000000000000000000000000000008fe6b999dc680ccfdd5bf7eb0974218be2542daa0000000000000000000000008fe6b999dc680ccfdd5bf7eb0974218be2542daa0000000000000000000000000000000000000000000000000000000000000000000003e80000000000000001000000000000000000000000036cbd53842c5426634e7929541ec2318f3dcf7e000000000000000000000000bfb4087e65437ec5bfed06f1f0375b47bff31cc800000000000000000000000000000000000000000000000000000000000f4240000000000000000000000000bfb4087e65437ec5bfed06f1f0375b47bff31cc800000000000000000000000000000000000000000000000000000000000186a000000000000000000000000000000000000000000000000000000000000000000000000000000000000000000000000000000000000000000000000000000000",
    "messageHash": "0xcdfa0b7b8512d2c3986b0dd15f23953a3018714863e841478f889a40076d3b2d",
    "attestation": null,
    "mintTx": null,
    "error": null,
    "updatedAt": 1770236715210
  },
  "bridge_1770236833583_6sw2jcoyl": {
    "id": "bridge_1770236833583_6sw2jcoyl",
    "status": "failed",
    "fromChain": "base_sepolia",
    "toChain": "ethereum_sepolia",
    "amount": "1",
    "amountWei": "1000000",
    "walletAddress": "0xbFb4087E65437EC5BFeD06f1F0375B47BFf31cC8",
    "createdAt": 1770236833631,
    "approveTx": "0xd3a821effcd1ec752a938e9a680be03c3e42c97ccd428173a39f3b8e0d190da4",
    "burnTx": null,
    "message": null,
    "messageHash": null,
    "attestation": null,
    "mintTx": null,
    "error": "execution reverted: \"ERC20: transfer amount exceeds allowance\" (action=\"estimateGas\", data=\"0x08c379a00000000000000000000000000000000000000000000000000000000000000020000000000000000000000000000000000000000000000000000000000000002845524332303a207472616e7366657220616d6f756e74206578636565647320616c6c6f77616e6365000000000000000000000000000000000000000000000000\", reason=\"ERC20: transfer amount exceeds allowance\", transaction={ \"data\": \"0x8e0250ee00000000000000000000000000000000000000000000000000000000000f42400000000000000000000000000000000000000000000000000000000000000000000000000000000000000000bfb4087e65437ec5bfed06f1f0375b47bff31cc8000000000000000000000000036cbd53842c5426634e7929541ec2318f3dcf7e000000000000000000000000000000000000000000000000000000000000000000000000000000000000000000000000000000000000000000000000000186a000000000000000000000000000000000000000000000000000000000000003e8\", \"from\": \"0xbFb4087E65437EC5BFeD06f1F0375B47BFf31cC8\", \"to\": \"0x8FE6B999Dc680CcFDD5Bf7EB0974218be2542DAA\" }, invocation=null, revert={ \"args\": [ \"ERC20: transfer amount exceeds allowance\" ], \"name\": \"Error\", \"signature\": \"Error(string)\" }, code=CALL_EXCEPTION, version=6.16.0)",
    "updatedAt": 1770236835181
  },
  "bridge_1770236864986_13ahb5p91": {
    "id": "bridge_1770236864986_13ahb5p91",
    "status": "failed",
    "fromChain": "base_sepolia",
    "toChain": "ethereum_sepolia",
    "amount": "1",
    "amountWei": "1000000",
    "walletAddress": "0xbFb4087E65437EC5BFeD06f1F0375B47BFf31cC8",
    "createdAt": 1770236865034,
    "approveTx": "0x03c314b79d7803656b74bedd3ae73ba00df8e1c8d7dd8a3fd290e3311200cdbd",
    "burnTx": null,
    "message": null,
    "messageHash": null,
    "attestation": null,
    "mintTx": null,
    "error": "replacement fee too low (transaction=\"0x02f9015183014a3410830f424083155cc083021504948fe6b999dc680ccfdd5bf7eb0974218be2542daa80b8e48e0250ee00000000000000000000000000000000000000000000000000000000000f42400000000000000000000000000000000000000000000000000000000000000000000000000000000000000000bfb4087e65437ec5bfed06f1f0375b47bff31cc8000000000000000000000000036cbd53842c5426634e7929541ec2318f3dcf7e000000000000000000000000000000000000000000000000000000000000000000000000000000000000000000000000000000000000000000000000000186a000000000000000000000000000000000000000000000000000000000000003e8c001a0aceca2c714b2770df2b6eb66a01e62b6fa164b5b340c5c49fe98a1467b14a48da00dabbf7f3b60a3807f08f57739baa14665b4aed7dbe9d13cf2b8ff1b8c54e389\", info={ \"error\": { \"code\": -32000, \"message\": \"replacement transaction underpriced\" } }, code=REPLACEMENT_UNDERPRICED, version=6.16.0)",
    "updatedAt": 1770236867107
  },
  "bridge_1770236877205_cmwrrc509": {
    "id": "bridge_1770236877205_cmwrrc509",
    "status": "complete",
    "fromChain": "base_sepolia",
    "toChain": "ethereum_sepolia",
    "amount": "1",
    "amountWei": "1000000",
    "walletAddress": "0xbFb4087E65437EC5BFeD06f1F0375B47BFf31cC8",
    "createdAt": 1770236877274,
    "approveTx": null,
    "burnTx": "0xbb99d5d2f14e5b812c1b410a252667c68474e45040061313266b956a98790b00",
    "message": "0x000000010000000600000000b82c3440440d388ebf4a950c99037084cba5fa8e209cf034d5f7e6e9ecac89c80000000000000000000000008fe6b999dc680ccfdd5bf7eb0974218be2542daa0000000000000000000000008fe6b999dc680ccfdd5bf7eb0974218be2542daa0000000000000000000000000000000000000000000000000000000000000000000003e8000003e800000001000000000000000000000000036cbd53842c5426634e7929541ec2318f3dcf7e000000000000000000000000bfb4087e65437ec5bfed06f1f0375b47bff31cc800000000000000000000000000000000000000000000000000000000000f4240000000000000000000000000bfb4087e65437ec5bfed06f1f0375b47bff31cc800000000000000000000000000000000000000000000000000000000000186a0000000000000000000000000000000000000000000000000000000000000008200000000000000000000000000000000000000000000000000000000009ba040",
    "messageHash": "0xcdfa0b7b8512d2c3986b0dd15f23953a3018714863e841478f889a40076d3b2d",
    "attestation": "0xe9dfca33d75f62ec44855691c551901c7390bd2caf288cc465eebc9a656e5a8e335059e92c3ecc2f315e5c1c4d35058f4ed88c5d6c02378cef8396f388b7ab3c1bb2af607ab438e67e9c73b17b5ac8d5d0446de55173c4891c80eaba9518fcd7064fb87f59359c57939ac213b6569a2cd3b93942ab014762d778260af801e487bc1c",
    "mintTx": "0xf4b3edfe6beada5bafc5ea5131d40377683db7d2fb61e66c869e336842ada79d",
    "error": null,
    "updatedAt": 1770236908284
  },
  "bridge_1770297715461_at2hne2i3": {
    "id": "bridge_1770297715461_at2hne2i3",
    "status": "failed",
    "fromChain": "base_sepolia",
    "toChain": "ethereum_sepolia",
    "amount": "2",
    "amountWei": "2000000",
    "walletAddress": "0xbFb4087E65437EC5BFeD06f1F0375B47BFf31cC8",
    "createdAt": 1770297715509,
    "approveTx": "0x8881804ca47ba3ba6e6e20222da4b8ec005efcfe289b2e68181cc38c197b9aa5",
    "burnTx": null,
    "message": null,
    "messageHash": null,
    "attestation": null,
    "mintTx": null,
    "error": "execution reverted: \"ERC20: transfer amount exceeds allowance\" (action=\"estimateGas\", data=\"0x08c379a00000000000000000000000000000000000000000000000000000000000000020000000000000000000000000000000000000000000000000000000000000002845524332303a207472616e7366657220616d6f756e74206578636565647320616c6c6f77616e6365000000000000000000000000000000000000000000000000\", reason=\"ERC20: transfer amount exceeds allowance\", transaction={ \"data\": \"0x8e0250ee00000000000000000000000000000000000000000000000000000000001e84800000000000000000000000000000000000000000000000000000000000000000000000000000000000000000bfb4087e65437ec5bfed06f1f0375b47bff31cc8000000000000000000000000036cbd53842c5426634e7929541ec2318f3dcf7e00000000000000000000000000000000000000000000000000000000000000000000000000000000000000000000000000000000000000000000000000030d4000000000000000000000000000000000000000000000000000000000000003e8\", \"from\": \"0xbFb4087E65437EC5BFeD06f1F0375B47BFf31cC8\", \"to\": \"0x8FE6B999Dc680CcFDD5Bf7EB0974218be2542DAA\" }, invocation=null, revert={ \"args\": [ \"ERC20: transfer amount exceeds allowance\" ], \"name\": \"Error\", \"signature\": \"Error(string)\" }, code=CALL_EXCEPTION, version=6.16.0)",
    "updatedAt": 1770297716982
  },
  "bridge_1770297736587_3txvko1zi": {
    "id": "bridge_1770297736587_3txvko1zi",
    "status": "complete",
    "fromChain": "base_sepolia",
    "toChain": "ethereum_sepolia",
    "amount": "1",
    "amountWei": "1000000",
    "walletAddress": "0xbFb4087E65437EC5BFeD06f1F0375B47BFf31cC8",
    "createdAt": 1770297736638,
    "approveTx": null,
    "burnTx": "0x8b23dd564a475c614e259bb652d3ea95a759322e0bbdee7f3aa76304bdca01a4",
    "message": "0x0000000100000006000000009bd3e3a9c2cd36c2f1c256d4799e20d1d101067f6aa7a4d42556ff1b8cb55abc0000000000000000000000008fe6b999dc680ccfdd5bf7eb0974218be2542daa0000000000000000000000008fe6b999dc680ccfdd5bf7eb0974218be2542daa0000000000000000000000000000000000000000000000000000000000000000000003e8000003e800000001000000000000000000000000036cbd53842c5426634e7929541ec2318f3dcf7e000000000000000000000000bfb4087e65437ec5bfed06f1f0375b47bff31cc800000000000000000000000000000000000000000000000000000000000f4240000000000000000000000000bfb4087e65437ec5bfed06f1f0375b47bff31cc800000000000000000000000000000000000000000000000000000000000186a0000000000000000000000000000000000000000000000000000000000000008200000000000000000000000000000000000000000000000000000000009bb345",
    "messageHash": "0xcdfa0b7b8512d2c3986b0dd15f23953a3018714863e841478f889a40076d3b2d",
    "attestation": "0x3956ddb010e1ab66d26dd383e2f56f8effb47b065e3f466bb184494706806872096b93cd870378da91b717414a451a4e2d051b4525edfc8d22f43cb83a01677b1cbd0c96da39f99cc736daf8dcc1622c971322a4af6886d96dceec990490c74e9f4141becf94bd0f0aa7303c9a3ec2cd7ee0f2dc0740651ad8b61034a9f47a8d3b1b",
    "mintTx": "0xfba6e1fd6b99ff270d00f6806c0c42fd3d18a01ac9be6ea3391612e809290ab9",
    "error": null,
    "updatedAt": 1770297746358
  }
}